:1000000040C064C063C062C061C060C062C35EC003
:100010005DC062C55BC05AC059C058C057C056C009
:1000200055C054C053C00000000000000000000391
:100030000406000000000000000001020408102077
:10004000408001020408102001020408102004046A
:100050000404040404040202020202020303030370
:1000600003030000000036003300300000000000F1
:100070003800350032000000000037003400310045
:10008000D50311241FBECFE5D4E0DEBFCDBF10E005
:10009000A0E6B0E0E2E0F7E102C005900D92AE3CD0
:1000A000B107D9F721E0AEECB0E001C01D92AE304F
:1000B000B207E1F710E0C2E8D0E003C02297FE01EA
:1000C0000EDBC038D107D1F77FD619CB99CFF89482
:1000D0001FBC1EBC1DBC1CBC87E290E09BBD8ABD42
:1000E0008EB588608EBD8EB581608EBD8EB5846004
:1000F0008EBD89B7806189BF7894089520E042E081
:1001000060E18DEE90E01BD461E089E0C6D561E04E
:100110008BE0C3D540E063E08DEE90E0F8D364E679
:1001200070E080E090E046D565E670E08DEE90E00E
:1001300093D641E060E08DEE90E0E9D364E670E0B4
:1001400080E090E037D560E770E08DEE90E084D6F7
:1001500068EB7BE080E090E02DD585B5896685BDB4
:100160008DEE90E0CFD3B3DF1092EC008091EC00E5
:100170008230C0F4E091EC00F0E0EE0FFF1FE4529B
:10018000FF4F11821082E091EC00F0E0EE0FFF1FB4
:10019000EC52FF4F118210828091EC008F5F8093B0
:1001A000EC00E4CF84E690E09093D3008093D200FB
:1001B0001092CF0078940895AF92BF92CF92DF92C1
:1001C000EF92FF920F931F93CF93DF9386E0D3D5E7
:1001D000EC018091E500813009F070C21092E100DD
:1001E0001092E0001092E3001092E2001092EC00F6
:1001F0008091EC00823090F48EE02AD52091E000CE
:100200003091E100280F391F3093E1002093E00086
:100210008091EC008F5F8093EC00EACF8091E0004A
:100220009091E1009093E3008093E2008091E200DE
:100230009091E300969587959093E3008093E20078
:100240001092D9001092D8001092DB001092DA00C0
:100250001092EC008091EC00823090F48FE0F8D4A2
:100260002091D8003091D900280F391F3093D90040
:100270002093D8008091EC008F5F8093EC00EACF50
:100280008091D8009091D9009093DB008093DA00A0
:100290002091DA003091DB00369527953093DB0012
:1002A0002093DA001092EC001092D1001092D0004E
:1002B0008091EC00823090F482E1CAD42091D00089
:1002C0003091D100280F391F3093D1002093D000F6
:1002D0008091EC008F5F8093EC00EACF2091D000FA
:1002E0003091D100369527953093D1002093D000DE
:1002F00081E090E0CD2B11F480E090E0019709F4CB
:100300006FC06091EA007091EB0080E090E01F9276
:100310001F921F922FEF2F93A12CB12C6501EE2479
:10032000EA9413E0F12E00E010E020E030E0A901B3
:1003300018D77093D3006093D2008091D20090912F
:10034000D30083BD40E060E08DEE90E0E0D264E653
:1003500070E080E090E02ED461E870E08DEE90E0F7
:100360007BD564E670E080E090E024D46091E20008
:100370007091E30080E090E03CD82CEC3DEB41E252
:1003800052E49ED7AB01BC0122E030E08DEE90E05C
:10039000E7D664E670E080E090E00CD466E870E0B8
:1003A0008DEE90E059D541E06AE08DEE90E0AFD25D
:1003B0006091D0007091D10080E090E01AD825E8DB
:1003C0003BEE41E050E47CD7AB01BC0122E030E0E1
:1003D0008DEE90E0C5D60F900F900F900F906CC1EE
:1003E0008091E2009091E300803F914008F0FFC0CF
:1003F00085B5896685BD8091DA009091DB00883EE5
:10040000934030F48091D2009091D300019605C0C2
:100410008091D2009091D30001979093D300809364
:10042000D2008091D2009091D3008E3F91053CF094
:100430008EEF90E09093D3008093D20004C080911F
:10044000D2009091D3008091D2009091D3001816E1
:1004500019062CF01092D3001092D20004C08091A3
:10046000D2009091D3008091D2009091D30083BDAF
:100470009091CE008091CF00992309F476C081112C
:1004800012C140E060E08DEE90E041D264E670E0A1
:1004900080E090E08FD361E870E08DEE90E0DCD4F6
:1004A00064E670E080E090E085D36091E2007091B6
:1004B000E30080E090E09DD723E333E347E052E49C
:1004C000FFD6AB01BC0122E030E08DEE90E048D6D3
:1004D00064E670E080E090E06DD368E870E08DEE57
:1004E00090E0BAD464E670E080E090E063D360917D
:1004F000E2007091E30080E090E01F921F921F9253
:1005000022E62F93A12CB12C650112ECE12EFF24E1
:10051000F39400E010E02EE531E040E050E021D619
:10052000AB01BC012AE030E08DEE90E0F4D464E64B
:1005300070E080E090E03ED36CE870E08DEE90E0FB
:100540008BD464E670E080E090E034D341E060E07A
:100550008DEE90E0DCD164EA70E08DEE90E07CD42A
:100560000F900F900F900F909EC081119CC040E0A3
:1005700060E08DEE90E0CBD164EA70E08DEE90E02B
:100580006BD441E060E08DEE90E0C1D164E670E0B4
:1005900080E090E00FD36091D2007091D3004AE0E8
:1005A00050E08DEE90E0FED441E068E08DEE90E00A
:1005B000AED16EE870E08DEE90E04ED441E06BE09D
:1005C0008DEE90E0A4D16091D0007091D10080E0D8
:1005D00090E00FD725E83BEE41E050E471D6AB0147
:1005E000BC0122E030E08DEE90E0BAD55CC0809195
:1005F000E2009091E3008430924030F08091D2008C
:100600009091D300019705C08091D2009091D300C2
:1006100001969093D3008093D2008091D200909164
:10062000D3008E3F91053CF08EEF90E09093D30085
:100630008093D20004C08091D2009091D300809129
:10064000D2009091D300181619062CF01092D30006
:100650001092D20004C08091D2009091D30060E04B
:100660008BE054D381E08093CF0040E060E08DEEDA
:1006700090E04DD164E670E080E090E09BD262E9CA
:1006800070E08DEE90E0E8D341E060E08DEE90E028
:100690003ED164E670E080E090E08CD263EA70E0E6
:1006A0008DEE90E0D9D38091E2009091E3008C3CF4
:1006B000914010F41092CF001092E500DF91CF919D
:1006C0001F910F91FF90EF90DF90CF90BF90AF9070
:1006D00008951F920F920FB60F9211242F933F93FC
:1006E0004F935F936F937F938F939F93AF93BF933A
:1006F000EF93FF938091E4008F5F8093E4008091FB
:10070000E6009091E70001969093E7008093E60061
:100710008091E8009091E90001969093E900809320
:10072000E80080E195D29093EB008093EA008091FD
:10073000E400823029F41092E40081E08093E50027
:100740008091E6009091E7008838934191F464E647
:1007500070E080E090E02ED28DEE90E0D3D0109249
:10076000E7001092E6008091CE0091E08927809307
:10077000CE008091E8009091E90080329E4421F4FF
:100780001092E9001092E800FF91EF91BF91AF91B4
:100790009F918F917F916F915F914F913F912F9199
:1007A0000F900FBE0F901F901895CF92EF920F935E
:1007B0007AE0C72EE8E0EE2E07E024E043E062E0B6
:1007C0008DEE90E05FD11092CE001092CF000F918D
:1007D000EF90CF900895CF93DF93EC0160E08E818E
:1007E00095D281E090E00BD261E08E818FD281E0E2
:1007F00090E005D260E08E8189D284E690E0DF91BE
:10080000CF91FDC1CF92DF92EF92FF920F931F9392
:10081000CF93DF937C01C0E0D0E0C62ED12C8701BE
:100820000C0F1D1F61E0F801878137D2B6010C2E35
:1008300002C0759567950A94E2F76170F8018781A7
:1008400065D22196C430D10551F7C701DF91CF9110
:100850001F910F91FF90EF90DF90CF90BCCFCF9280
:10086000DF92EF92FF920F931F93CF93DF937C0160
:10087000C0E0D0E0C62ED12C87010C0F1D1F61E017
:10088000F80187810AD2B6010C2E02C075956795D2
:100890000A94E2F76170F801878138D22196C83056
:1008A000D10551F7C701DF91CF911F910F91FF90B3
:1008B000EF90DF90CF908FCF1F93CF93DF93EC011A
:1008C000162F642F8C8122D28D818F3F11F060E032
:1008D0001DD28F85612F84FF05C0CE01DF91CF919E
:1008E0001F91BDCF70E084E0759567958A95E1F71B
:1008F000CE0188DF612FCE01DF91CF911F9182CF92
:1009000040E0DACF61E0FCDF80ED97E078C1443071
:1009100008F043E0FC012389421710F04FEF420F2B
:10092000FC01E40FF11D2489260F2068622FE8CF17
:10093000FC016089262F2460208B6C60E1CFCF936F
:10094000DF93EC01423018F08F8588608F874B8BE6
:100950001C8A80E48D8B6E8B70E0605C7F4F6F8BA8
:10096000222329F0413019F48F8584608F8780E538
:1009700093EC45D160E08C81C9D160E08E81C6D115
:100980008D818F3F11F060E0C1D16F8564FD16C08D
:1009900063E0CE0137DF84E991E131D163E0CE013C
:1009A00031DF84E991E12BD163E0CE012BDF86E9D1
:1009B00090E025D162E0CE0125DF11C06062CE015A
:1009C0009FDF84E991E11BD16F856062CE0198DFE2
:1009D00086E990E014D16F856062CE0191DF6F856A
:1009E0006062CE018DDF84E0888BCE01A1DFCE0175
:1009F00089DF82E0898B66E0CE01DF91CF9180CFE5
:100A00006F927F928F92AF92CF92EF920F931F933C
:100A1000CF93DF93CDB7DEB73C01162F842F5D85D2
:100A20004E853F859889F301848325830683E78279
:100A3000C086A1868286538744873587968761E082
:100A40002CD1F30185818F3F11F061E026D161E067
:100A5000F301868122D1112319F0F301178603C017
:100A600080E1F301878720E041E060E1C301DF918D
:100A7000CF911F910F91EF90CF90AF908F907F907B
:100A80006F905DCF8F92AF92CF92EF920F93DC0178
:100A900013961C921E921297E8EBF0E0ED93FC93F4
:100AA0001F921F921F921F928C2CAE2CC02EE22EF2
:100AB000042F2FEF462F61E0A3DF0F900F900F90D0
:100AC0000F900F91EF90CF90AF908F90089541E0ED
:100AD000F3DE81E090E008951F920F920FB60F921F
:100AE00011242F933F938F939F93AF93BF93809144
:100AF000060190910701A0910801B0910901309180
:100B0000050126E0230F2D3720F40296A11DB11D0B
:100B100005C029E8230F0396A11DB11D20930501EF
:100B20008093060190930701A0930801B0930901F7
:100B300080910A0190910B01A0910C01B0910D01DF
:100B40000196A11DB11D80930A0190930B01A09302
:100B50000C01B0930D01BF91AF919F918F913F9187
:100B60002F910F900FBE0F901F9018953FB7F894DC
:100B700080910A0190910B01A0910C01B0910D019F
:100B800022B708B600FE05C02F3F19F00196A11D3F
:100B9000B11D3FBF6627782F892F9A2F620F711DD5
:100BA000811D911D43E0660F771F881F991F4A958D
:100BB000D1F70895CF92DF92EF92FF92CF93DF9318
:100BC0006B017C01D3DFEB01C114D104E104F1041A
:100BD00079F00CD3CBDF6C1B7D0B683E7340A0F328
:100BE00081E0C81AD108E108F108C851DC4FECCF08
:100BF000DF91CF91FF90EF90DF90CF9008958330F9
:100C0000910528F0880F991F04970197F1F708952F
:100C1000789483B7826083BF83B7816083BF89B7CD
:100C2000816089BF1EBC8EB582608EBD8EB581602D
:100C30008EBD8FB581608FBD85B5846085BD85B55E
:100C4000806485BD329A319A3098379A1AB80895DF
:100C50008E3008F08E5087702091640090E4299FB8
:100C600090011124822B87B9369A3699FECF84B130
:100C700025B190E0922B0895843039F0863049F008
:100C8000833051F48FB58F7702C08FB58F7D8FBDC4
:100C9000089585B58F7D85BD0895CF93DF9390E04E
:100CA000FC01E65CFF4F2491FC01E25BFF4F849165
:100CB000882349F190E0880F991FFC01EA58FF4F03
:100CC000A591B49184599F4FFC01C591D4919FB7D0
:100CD000611108C0F8948C91209582238C938881AF
:100CE00082230AC0623051F4F8948C91322F3095EF
:100CF00083238C938881822B888304C0F8948C9101
:100D0000822B8C939FBFDF91CF9108950F931F93F8
:100D1000CF93DF931F92CDB7DEB7282F30E0F901D4
:100D2000EA5DFF4F8491F901E65CFF4F1491F901F0
:100D3000E25BFF4F04910023C1F0882319F069831F
:100D40009BDF6981E02FF0E0EE0FFF1FE459FF4FBA
:100D5000A591B4919FB7F8948C91611103C010953F
:100D6000812301C0812B8C939FBF0F90DF91CF9186
:100D70001F910F910895CF93DF93282F30E0F90151
:100D8000EA5DFF4F8491F901E65CFF4FD491F901D0
:100D9000E25BFF4FC491CC2389F081116DDFEC2F12
:100DA000F0E0EE0FFF1FEE59FF4FA591B4912C918B
:100DB0002D2381E090E021F480E002C080E090E00B
:100DC000DF91CF910895089523DFFDDF97D9C0E02B
:100DD000D0E0F2D92097E9F313D9FBCFCF92DF927D
:100DE000EF92FF920F931F93CF93DF936C017A01E1
:100DF000EB01E60EF71E00E010E0CE15DF0561F016
:100E00006991D601ED91FC910190F081E02DC60130
:100E10000995080F191FF1CFC801DF91CF911F91DC
:100E20000F91FF90EF90DF90CF90089561157105BD
:100E300081F0DB010D900020E9F7AD01415051092F
:100E4000461B570BDC01ED91FC910280F381E02DF4
:100E5000099480E090E00895E9CFDC01ED91FC91E8
:100E60000190F081E02D09948F929F92AF92BF92F2
:100E7000CF92DF92EF92FF920F931F93CF93DF9366
:100E8000CDB7DEB7A1970FB6F894DEBF0FBECDBFCA
:100E90007C01C42EE52FCB01D22E19A221E02D1505
:100EA00010F02AE0D22E8E010F5D1F4F8D2C912C59
:100EB000A12CB12C6C2D7E2FA5019401C6D38C2DB5
:100EC000D29E80191124015011098A3014F4805DDA
:100ED00001C0895CF8018083211531054105510568
:100EE00021F0C22EE32FCA01E5CFB801C7019EDF72
:100EF000A1960FB6F894DEBF0FBECDBFDF91CF91A4
:100F00001F910F91FF90EF90DF90CF90BF90AF9027
:100F10009F908F900895CF92DF92EF92FF920F9360
:100F20001F93CF93DF93EC016A017B0121153105FB
:100F300079F4E881F9810190F081E02D642FDF914F
:100F4000CF911F910F91FF90EF90DF90CF90099478
:100F50002A303105D9F477FF18C06DE27EDF8C01AD
:100F600044275527BA014C195D096E097F092AE00B
:100F7000CE017ADF800F911FDF91CF911F910F91EA
:100F8000FF90EF90DF90CF9008952AE0B701A6017F
:100F9000CE01DF91CF911F910F91FF90EF90DF90E5
:100FA000CF9062CF9A01AB01662757FD6095762FEF
:100FB000B2CF4F925F926F927F928F929F92AF9239
:100FC000BF92CF92DF92EF92FF920F931F93CF9336
:100FD000DF93EC016A017B01B22E9A01AB01C701DC
:100FE000B60120D3882319F06FEB70E024C02601EE
:100FF0003701E89477F82FEF3FEF4FE75FE7C30142
:10100000B20110D381110CC02FEF3FEF4FE75FE724
:10101000C301B20151D118161CF463EC70E00BC08F
:101020002FEF3FEF4FE75FE4C701B60194D21816E8
:10103000A4F467EC70E0CE01DF91CF911F910F9186
:10104000FF90EF90DF90CF90BF90AF909F908F90E8
:101050007F906F905F904F90E9CE2FEF3FEF4FE77B
:101060005FECC701B60128D187FDE3CF20E030E077
:10107000A901C701B60120D187FF09C06DE2CE01E9
:10108000ECDE8C01F7FAF094F7F8F09402C000E07F
:1010900010E0A12C60E070E080E09FE3AB1439F039
:1010A00020E030E040E251E40BD1A394F7CF9B0164
:1010B000AC01C701B6019CD06B017C016ED12B0144
:1010C0003C0197D19B01AC01C701B60190D06B01E7
:1010D0007C012AE0B301A201CE01C6DE080F191F70
:1010E000BB2031F06BEC70E0CE01A0DE080F191FC1
:1010F0007B2C772019F120E030E040E251E4C70179
:10110000B6012DD26B017C0143D14B01AA2497FC7F
:10111000A094BA2C2AE030E0B501A401CE01FBDE98
:10112000080F191FC501B40166D19B01AC01C701AD
:10113000B6015DD06B017C017A94DBCFC801DF91F1
:10114000CF911F910F91FF90EF90DF90CF90BF90C4
:10115000AF909F908F907F906F905F904F90089589
:1011600028CF4F925F926F927F92AF92BF92CF92B1
:10117000DF92EF92FF920F931F93CF93DF93CDB740
:10118000DEB729013A01621B730B840B950B298989
:101190003A894B895C892A193B094C095D09298BDD
:1011A0003A8B4B8B5C8B9B01AC0169897A898B896B
:1011B0009C893CD2E418F50806091709A801970193
:1011C00066D22A0D3B1D4C1D5D1DCA01B901DF9180
:1011D000CF911F910F91FF90EF90DF90CF90BF9034
:1011E000AF907F906F905F904F9008950895505802
:1011F000BB27AA270ED075C166D130F06BD120F085
:1012000031F49F3F11F41EF45BC10EF4E095E7FB4F
:1012100051C1E92F77D180F3BA17620773078407AA
:10122000950718F071F49EF58FC10EF4E0950B2E22
:10123000BA2FA02D0B01B90190010C01CA01A00128
:101240001124FF27591B99F0593F50F4503E68F183
:101250001A16F040A22F232F342F4427585FF3CFC4
:10126000469537952795A795F0405395C9F77EF495
:101270001F16BA0B620B730B840BBAF09150A1F0DE
:10128000FF0FBB1F661F771F881FC2F70EC0BA0F64
:10129000621F731F841F48F4879577956795B795EC
:1012A000F7959E3F08F0B3CF9395880F08F09927E4
:1012B000EE0F979587950895D9D008F481E00895A9
:1012C0000CD00FC107D140F0FED030F021F45F3FC9
:1012D00019F0F0C0511139C1F3C014D198F399231A
:1012E000C9F35523B1F3951B550BBB27AA276217EA
:1012F0007307840738F09F5F5F4F220F331F441F2F
:10130000AA1FA9F333D00E2E3AF0E0E830D0915066
:101310005040E695001CCAF729D0FE2F27D0660F53
:10132000771F881FBB1F261737074807AB07B0E892
:1013300009F0BB0B802DBF01FF2793585F4F2AF0A8
:101340009E3F510568F0B6C000C15F3FECF3983E88
:10135000DCF3869577956795B795F7959F5FC9F705
:10136000880F911D9695879597F90895E1E0660F8E
:10137000771F881FBB1F621773078407BA0720F007
:10138000621B730B840BBA0BEE1F88F7E095089570
:1013900004D06894B111D9C00895BCD088F09F578B
:1013A00090F0B92F9927B751A0F0D1F0660F771FB1
:1013B000881F991F1AF0BA95C9F712C0B13081F091
:1013C000C3D0B1E00895C0C0672F782F8827B85FD9
:1013D00039F0B93FCCF3869577956795B395D9F7F2
:1013E0003EF490958095709561957F4F8F4F9F4FFC
:1013F0000895E89409C097FB3EF490958095709508
:1014000061957F4F8F4F9F4F9923A9F0F92F96E950
:10141000BB279395F695879577956795B795F111C5
:10142000F8CFFAF4BB0F11F460FF1BC06F5F7F4F62
:101430008F4F9F4F16C0882311F096E911C0772374
:1014400021F09EE8872F762F05C0662371F096E87D
:10145000862F70E060E02AF09A95660F771F881F4C
:10146000DAF7880F9695879597F90895990F0008F0
:10147000550FAA0BE0E8FEEF16161706E807F90766
:10148000C0F012161306E407F50798F0621B730B01
:10149000840B950B39F40A2661F0232B242B252B82
:1014A00021F408950A2609F4A140A6958FEF811D25
:1014B000811D089597F99F6780E870E060E00895C6
:1014C0009FEF80EC089500240A941616170618065C
:1014D0000906089500240A94121613061406050638
:1014E0000895092E0394000C11F4882352F0BB0FC9
:1014F00040F4BF2B11F460FF04C06F5F7F4F8F4F2C
:101500009F4F089557FD9058440F551F59F05F3F66
:1015100071F04795880F97FB991F61F09F3F79F015
:1015200087950895121613061406551FF2CF469597
:10153000F1DF08C0161617061806991FF1CF869519
:101540007105610508940895E894BB2766277727FD
:10155000CB0197F908958ADF08F48FEF08950BD037
:10156000C0CFB1DF28F0B6DF18F0952309F0A2CF85
:10157000A7CF1124EACFC6DFA0F3959FD1F3950F33
:1015800050E0551F629FF001729FBB27F00DB11D07
:10159000639FAA27F00DB11DAA1F649F6627B00D97
:1015A000A11D661F829F2227B00DA11D621F739F80
:1015B000B00DA11D621F839FA00D611D221F749F8E
:1015C0003327A00D611D231F849F600D211D822FD5
:1015D000762F6A2F11249F5750408AF0E1F088231C
:1015E0004AF0EE0FFF1FBB1F661F771F881F915029
:1015F0005040A9F79E3F510570F05CCFA6CF5F3FEA
:10160000ECF3983EDCF3869577956795B795F7955B
:10161000E7959F5FC1F7FE2B880F911D96958795E3
:1016200097F9089523DF880B990B0895DB018F93B9
:101630009F9349D0BF91AF91A29F800D911DA39F11
:10164000900DB29F900D11240895A1E21A2EAA1BAD
:10165000BB1BFD010DC0AA1FBB1FEE1FFF1FA21762
:10166000B307E407F50720F0A21BB30BE40BF50B5F
:10167000661F771F881F991F1A9469F760957095E8
:10168000809590959B01AC01BD01CF010895052E79
:1016900097FB16F400940FD057FD05D0D6DF07FC5A
:1016A00002D046F408C050954095309521953F4FA3
:1016B0004F4F5F4F089590958095709561957F4F3E
:1016C0008F4F9F4F08950FD0A59F900DB49F900D01
:1016D000A49F800D911D11240895EE0FFF1F05900A
:1016E000F491E02D0994A29FB001B39FC001A39F84
:1016F00001D0B29F700D811D1124911D0895F894A1
:02170000FFCF19
:101702000100000001454D42454454484554410002
:1017120020426174746572792043686172676572F0
:1017220000422E563A005600562C20002500414316
:101732003A0046756C6C20436861726765642020CC
:1017420020200020202020202020202020202020B7
:1017520020202000000000006705EE060D0A006E42
:0E176200616E00696E66006F7666002E0000F4
:00000001FF
